{
  "abi": [
    {
      "type": "constructor",
      "inputs": [
        {
          "name": "_reserveContract",
          "type": "address",
          "internalType": "address"
        },
        {
          "name": "_stabelAddress",
          "type": "address",
          "internalType": "address"
        }
      ],
      "stateMutability": "nonpayable"
    },
    {
      "type": "function",
      "name": "getPrice",
      "inputs": [],
      "outputs": [
        {
          "name": "usdt_price",
          "type": "uint256",
          "internalType": "uint256"
        },
        {
          "name": "eth_price",
          "type": "uint256",
          "internalType": "uint256"
        }
      ],
      "stateMutability": "view"
    },
    {
      "type": "function",
      "name": "owner",
      "inputs": [],
      "outputs": [
        {
          "name": "",
          "type": "address",
          "internalType": "address"
        }
      ],
      "stateMutability": "view"
    },
    {
      "type": "function",
      "name": "renounceOwnership",
      "inputs": [],
      "outputs": [],
      "stateMutability": "nonpayable"
    },
    {
      "type": "function",
      "name": "transferOwnership",
      "inputs": [
        {
          "name": "newOwner",
          "type": "address",
          "internalType": "address"
        }
      ],
      "outputs": [],
      "stateMutability": "nonpayable"
    },
    {
      "type": "function",
      "name": "validatePeg",
      "inputs": [],
      "outputs": [],
      "stateMutability": "nonpayable"
    },
    {
      "type": "event",
      "name": "OwnershipTransferred",
      "inputs": [
        {
          "name": "previousOwner",
          "type": "address",
          "indexed": true,
          "internalType": "address"
        },
        {
          "name": "newOwner",
          "type": "address",
          "indexed": true,
          "internalType": "address"
        }
      ],
      "anonymous": false
    },
    {
      "type": "event",
      "name": "ValidatePeg",
      "inputs": [
        {
          "name": "method",
          "type": "string",
          "indexed": true,
          "internalType": "string"
        },
        {
          "name": "time",
          "type": "uint256",
          "indexed": false,
          "internalType": "uint256"
        },
        {
          "name": "reserveValue",
          "type": "uint256",
          "indexed": false,
          "internalType": "uint256"
        },
        {
          "name": "stableTotalSupply",
          "type": "uint256",
          "indexed": false,
          "internalType": "uint256"
        }
      ],
      "anonymous": false
    },
    {
      "type": "error",
      "name": "OwnableInvalidOwner",
      "inputs": [
        {
          "name": "owner",
          "type": "address",
          "internalType": "address"
        }
      ]
    },
    {
      "type": "error",
      "name": "OwnableUnauthorizedAccount",
      "inputs": [
        {
          "name": "account",
          "type": "address",
          "internalType": "address"
        }
      ]
    }
  ],
  "bytecode": {
    "object": "0x60c060405234801561001057600080fd5b5060405161097738038061097783398101604081905261002f916100e2565b338061005557604051631e4fbdf760e01b81526000600482015260240160405180910390fd5b61005e81610076565b506001600160a01b039182166080521660a052610115565b600080546001600160a01b038381166001600160a01b0319831681178455604051919092169283917f8be0079c531659141344cd1fd0a4f28419497f9722a3daafe3b4186f6b6457e09190a35050565b80516001600160a01b03811681146100dd57600080fd5b919050565b600080604083850312156100f557600080fd5b6100fe836100c6565b915061010c602084016100c6565b90509250929050565b60805160a05161082861014f6000396000818161024c015281816102fb01526103f101526000818161010b015261019a01526108286000f3fe608060405234801561001057600080fd5b50600436106100575760003560e01c8063715018a61461005c5780638a6e0169146100665780638da5cb5b1461006e57806398d5fdca1461008e578063f2fde38b146100ab575b600080fd5b6100646100be565b005b6100646100d2565b6000546040516001600160a01b0390911681526020015b60405180910390f35b6100966104be565b60408051928352602083019190915201610085565b6100646100b936600461069b565b6105c6565b6100c6610609565b6100d06000610636565b565b6100da610609565b6000806100e56104be565b6040516301bfedcf60e51b81526000600482018190529294509092506001600160a01b037f000000000000000000000000000000000000000000000000000000000000000016906337fdb9e0906024016040805180830381865afa158015610151573d6000803e3d6000fd5b505050506040513d601f19601f8201168201806040525081019061017591906106bf565b6040516301bfedcf60e51b815260016004820152909250600091506001600160a01b037f000000000000000000000000000000000000000000000000000000000000000016906337fdb9e0906024016040805180830381865afa1580156101e0573d6000803e3d6000fd5b505050506040513d601f19601f8201168201806040525081019061020491906106bf565b9150600090506305f5e1006102198386610703565b6102239190610720565b6305f5e1006102328588610703565b61023c9190610720565b6102469190610742565b905060007f00000000000000000000000000000000000000000000000000000000000000006001600160a01b03166318160ddd6040518163ffffffff1660e01b8152600401602060405180830381865afa1580156102a8573d6000803e3d6000fd5b505050506040513d601f19601f820116820180604052508101906102cc9190610755565b9050818110156103c45760006102e2828461076e565b60405163140e25ad60e31b8152600481018290529091507f00000000000000000000000000000000000000000000000000000000000000006001600160a01b03169063a0712d6890602401600060405180830381600087803b15801561034757600080fd5b505af115801561035b573d6000803e3d6000fd5b505050506040516103769063135a5b9d60e21b815260040190565b6040805191829003822042835260208301869052908201849052907f66195c575172b79e8e16f3788a615a90155225fdae3d4cf155d0f24f2b06736b9060600160405180910390a2506104b6565b818111156104b65760006103d8838361076e565b604051630852cd8d60e31b8152600481018290529091507f00000000000000000000000000000000000000000000000000000000000000006001600160a01b0316906342966c6890602401600060405180830381600087803b15801561043d57600080fd5b505af1158015610451573d6000803e3d6000fd5b5050505060405161046c9063213ab93760e11b815260040190565b6040805191829003822042835260208301869052908201849052907f66195c575172b79e8e16f3788a615a90155225fdae3d4cf155d0f24f2b06736b9060600160405180910390a2505b505050505050565b600080600073a2f78ab2355fe2f984d808b5cee7fd0a93d5270e6001600160a01b031663feaf968c6040518163ffffffff1660e01b815260040160a060405180830381865afa158015610515573d6000803e3d6000fd5b505050506040513d601f19601f8201168201806040525081019061053991906107a0565b505050915050600073694aa1769357215de4fac081bf1f309adc3253066001600160a01b031663feaf968c6040518163ffffffff1660e01b815260040160a060405180830381865afa158015610593573d6000803e3d6000fd5b505050506040513d601f19601f820116820180604052508101906105b791906107a0565b50949791965090945050505050565b6105ce610609565b6001600160a01b0381166105fd57604051631e4fbdf760e01b8152600060048201526024015b60405180910390fd5b61060681610636565b50565b6000546001600160a01b031633146100d05760405163118cdaa760e01b81523360048201526024016105f4565b600080546001600160a01b038381166001600160a01b0319831681178455604051919092169283917f8be0079c531659141344cd1fd0a4f28419497f9722a3daafe3b4186f6b6457e09190a35050565b6001600160a01b038116811461060657600080fd5b6000602082840312156106ad57600080fd5b81356106b881610686565b9392505050565b600080604083850312156106d257600080fd5b82516106dd81610686565b6020939093015192949293505050565b634e487b7160e01b600052601160045260246000fd5b808202811582820484141761071a5761071a6106ed565b92915050565b60008261073d57634e487b7160e01b600052601260045260246000fd5b500490565b8082018082111561071a5761071a6106ed565b60006020828403121561076757600080fd5b5051919050565b8181038181111561071a5761071a6106ed565b805169ffffffffffffffffffff8116811461079b57600080fd5b919050565b600080600080600060a086880312156107b857600080fd5b6107c186610781565b602087015160408801516060890151929750909550935091506107e660808701610781565b9050929550929590935056fea264697066735822122009ecb2e4232f1ea743436db777eda539118ef074ba68866190fe69097cb31e1764736f6c634300081c0033",
    "linkReferences": {}
  },
  "methodIdentifiers": {
    "getPrice()": "98d5fdca",
    "owner()": "8da5cb5b",
    "renounceOwnership()": "715018a6",
    "transferOwnership(address)": "f2fde38b",
    "validatePeg()": "8a6e0169"
  },
  "id": 34
}