{
  "abi": [
    {
      "type": "constructor",
      "inputs": [],
      "stateMutability": "nonpayable"
    },
    {
      "type": "function",
      "name": "addCollateralAmount",
      "inputs": [
        {
          "name": "index",
          "type": "uint256",
          "internalType": "uint256"
        },
        {
          "name": "_collateralAmount",
          "type": "uint256",
          "internalType": "uint256"
        }
      ],
      "outputs": [],
      "stateMutability": "nonpayable"
    },
    {
      "type": "function",
      "name": "deposit",
      "inputs": [
        {
          "name": "collatral",
          "type": "address",
          "internalType": "address"
        },
        {
          "name": "_collateralAmount",
          "type": "uint256",
          "internalType": "uint256"
        }
      ],
      "outputs": [],
      "stateMutability": "nonpayable"
    },
    {
      "type": "function",
      "name": "owner",
      "inputs": [],
      "outputs": [
        {
          "name": "",
          "type": "address",
          "internalType": "address"
        }
      ],
      "stateMutability": "view"
    },
    {
      "type": "function",
      "name": "renounceOwnership",
      "inputs": [],
      "outputs": [],
      "stateMutability": "nonpayable"
    },
    {
      "type": "function",
      "name": "reserveCount",
      "inputs": [],
      "outputs": [
        {
          "name": "",
          "type": "uint256",
          "internalType": "uint256"
        }
      ],
      "stateMutability": "view"
    },
    {
      "type": "function",
      "name": "rsvMap",
      "inputs": [
        {
          "name": "",
          "type": "uint256",
          "internalType": "uint256"
        }
      ],
      "outputs": [
        {
          "name": "collatral",
          "type": "address",
          "internalType": "address"
        },
        {
          "name": "amount",
          "type": "uint256",
          "internalType": "uint256"
        }
      ],
      "stateMutability": "view"
    },
    {
      "type": "function",
      "name": "transferOwnership",
      "inputs": [
        {
          "name": "newOwner",
          "type": "address",
          "internalType": "address"
        }
      ],
      "outputs": [],
      "stateMutability": "nonpayable"
    },
    {
      "type": "function",
      "name": "withdraw",
      "inputs": [
        {
          "name": "_collateralAmount",
          "type": "uint256",
          "internalType": "uint256"
        },
        {
          "name": "index",
          "type": "uint256",
          "internalType": "uint256"
        }
      ],
      "outputs": [],
      "stateMutability": "nonpayable"
    },
    {
      "type": "event",
      "name": "Deposit",
      "inputs": [
        {
          "name": "collateral",
          "type": "address",
          "indexed": false,
          "internalType": "address"
        },
        {
          "name": "amount",
          "type": "uint256",
          "indexed": false,
          "internalType": "uint256"
        }
      ],
      "anonymous": false
    },
    {
      "type": "event",
      "name": "OwnershipTransferred",
      "inputs": [
        {
          "name": "previousOwner",
          "type": "address",
          "indexed": true,
          "internalType": "address"
        },
        {
          "name": "newOwner",
          "type": "address",
          "indexed": true,
          "internalType": "address"
        }
      ],
      "anonymous": false
    },
    {
      "type": "event",
      "name": "Withdraw",
      "inputs": [
        {
          "name": "collateral",
          "type": "address",
          "indexed": false,
          "internalType": "address"
        },
        {
          "name": "amount",
          "type": "uint256",
          "indexed": false,
          "internalType": "uint256"
        }
      ],
      "anonymous": false
    },
    {
      "type": "error",
      "name": "ColateralAlreadyExist",
      "inputs": []
    },
    {
      "type": "error",
      "name": "OwnableInvalidOwner",
      "inputs": [
        {
          "name": "owner",
          "type": "address",
          "internalType": "address"
        }
      ]
    },
    {
      "type": "error",
      "name": "OwnableUnauthorizedAccount",
      "inputs": [
        {
          "name": "account",
          "type": "address",
          "internalType": "address"
        }
      ]
    },
    {
      "type": "error",
      "name": "SafeERC20FailedOperation",
      "inputs": [
        {
          "name": "token",
          "type": "address",
          "internalType": "address"
        }
      ]
    },
    {
      "type": "error",
      "name": "WithdrawError",
      "inputs": []
    }
  ],
  "bytecode": {
    "object": "0x6080604052348015600f57600080fd5b503380603557604051631e4fbdf760e01b81526000600482015260240160405180910390fd5b603c816041565b506091565b600080546001600160a01b038381166001600160a01b0319831681178455604051919092169283917f8be0079c531659141344cd1fd0a4f28419497f9722a3daafe3b4186f6b6457e09190a35050565b6106ef806100a06000396000f3fe608060405234801561001057600080fd5b50600436106100885760003560e01c8063715018a61161005b578063715018a6146101235780638da5cb5b1461012b578063b2a72a0e14610146578063f2fde38b1461015957600080fd5b806316317c211461008d57806337fdb9e0146100a9578063441a3e70146100fb57806347e7ef2414610110575b600080fd5b61009660015481565b6040519081526020015b60405180910390f35b6100dc6100b73660046105bb565b600260205260009081526040902080546001909101546001600160a01b039091169082565b604080516001600160a01b0390931683526020830191909152016100a0565b61010e6101093660046105d4565b61016c565b005b61010e61011e366004610612565b610221565b61010e610302565b6000546040516001600160a01b0390911681526020016100a0565b61010e6101543660046105d4565b610316565b61010e61016736600461063c565b61039e565b6101746103e1565b600081815260026020526040902060018101548311156101a75760405163351dc55d60e21b815260040160405180910390fd5b828160010160008282546101bb9190610674565b909155505080546101d6906001600160a01b0316338561040e565b8054604080516001600160a01b039092168252602082018590527f884edad9ce6fa2440d8a54cc123490eb96d2768479d49ff9c7366125a942436491015b60405180910390a1505050565b6102296103e1565b61023282610472565b156102505760405163cca5093960e01b815260040160405180910390fd5b604080518082019091526001600160a01b0383168082526020820183905261027a903330856104bb565b600180548291600291600091826102908361068d565b9091555081526020808201929092526040908101600020835181546001600160a01b0319166001600160a01b0391821617825593830151600190910155805192861683529082018490527fe1fffcc4923d04b559f4d29a8bfc6cda04eb5b0d3c460751c2402c5c5cc9109c9101610214565b61030a6103e1565b61031460006104fa565b565b61031e6103e1565b60008281526002602052604090208054610343906001600160a01b03163330856104bb565b8181600101600082825461035791906106a6565b90915550508054604080516001600160a01b039092168252602082018490527fe1fffcc4923d04b559f4d29a8bfc6cda04eb5b0d3c460751c2402c5c5cc9109c9101610214565b6103a66103e1565b6001600160a01b0381166103d557604051631e4fbdf760e01b8152600060048201526024015b60405180910390fd5b6103de816104fa565b50565b6000546001600160a01b031633146103145760405163118cdaa760e01b81523360048201526024016103cc565b6040516001600160a01b0383811660248301526044820183905261046d91859182169063a9059cbb906064015b604051602081830303815290604052915060e01b6020820180516001600160e01b03838183161783525050505061054a565b505050565b6000805b6001548110156104b2576000818152600260205260409020546001600160a01b038085169116036104aa5750600192915050565b600101610476565b50600092915050565b6040516001600160a01b0384811660248301528381166044830152606482018390526104f49186918216906323b872dd9060840161043b565b50505050565b600080546001600160a01b038381166001600160a01b0319831681178455604051919092169283917f8be0079c531659141344cd1fd0a4f28419497f9722a3daafe3b4186f6b6457e09190a35050565b600080602060008451602086016000885af18061056d576040513d6000823e3d81fd5b50506000513d91508115610585578060011415610592565b6001600160a01b0384163b155b156104f457604051635274afe760e01b81526001600160a01b03851660048201526024016103cc565b6000602082840312156105cd57600080fd5b5035919050565b600080604083850312156105e757600080fd5b50508035926020909101359150565b80356001600160a01b038116811461060d57600080fd5b919050565b6000806040838503121561062557600080fd5b61062e836105f6565b946020939093013593505050565b60006020828403121561064e57600080fd5b610657826105f6565b9392505050565b634e487b7160e01b600052601160045260246000fd5b818103818111156106875761068761065e565b92915050565b60006001820161069f5761069f61065e565b5060010190565b808201808211156106875761068761065e56fea2646970667358221220caa4e4fb74c7a16eddad9e6ecdc8648745d222e76728e6f5a001867ca08e3bf964736f6c634300081c0033",
    "linkReferences": {}
  },
  "methodIdentifiers": {
    "addCollateralAmount(uint256,uint256)": "b2a72a0e",
    "deposit(address,uint256)": "47e7ef24",
    "owner()": "8da5cb5b",
    "renounceOwnership()": "715018a6",
    "reserveCount()": "16317c21",
    "rsvMap(uint256)": "37fdb9e0",
    "transferOwnership(address)": "f2fde38b",
    "withdraw(uint256,uint256)": "441a3e70"
  },
  "id": 41
}